:100000000C9461000C947E000C947E000C947E0095
:100010000C947E000C947E000C947E000C947E0068
:100020000C947E000C947E000C947E000C947E0058
:100030000C947E000C947E000C947E000C947E0048
:100040000C94C8000C947E000C947E000C947E00EE
:100050000C947E000C947E000C947E000C947E0028
:100060000C947E000C947E00000000080002010049
:100070000003040700000000000000000102040863
:100080001020408001020408102001020408102002
:10009000040404040404040402020202020203032E
:1000A00003030303000000002300260029000000D2
:1000B0000000250028002B0000000000240027007D
:1000C0002A0011241FBECFEFD8E0DEBFCDBF11E064
:1000D000A0E0B1E0EEEAF5E002C005900D92A0309C
:1000E000B107D9F721E0A0E0B1E001C01D92A9302D
:1000F000B207E1F70E9480000C94D5020C94000036
:100100008F929F92AF92BF92CF92DF92EF92FF9227
:100110000F931F930E94730100E010E088EE93E0BC
:100120006C018FEF90E04C0122C088E0B8010E9482
:10013000760289E0B8010E94760287E0B8010E9449
:1001400076027601B701C8010E94370188E05401A8
:10015000B5010E94760289E0B5010E94760287E02F
:10016000B5010E947602B701C8010E94370180E004
:10017000803009F4DACF80E090E01F910F91FF907A
:10018000EF90DF90CF90BF90AF909F908F900895A9
:100190001F920F920FB60F9211242F933F938F93BC
:1001A0009F93AF93BF938091000190910101A09123
:1001B0000201B09103013091080123E0230F2D3794
:1001C00020F40196A11DB11D05C026E8230F02965B
:1001D000A11DB11D2093080180930001909301019E
:1001E000A0930201B0930301809104019091050155
:1001F000A0910601B09107010196A11DB11D809348
:10020000040190930501A0930601B0930701BF91EB
:10021000AF919F918F913F912F910F900FBE0F90B3
:100220001F9018953FB7F8948091040190910501B3
:10023000A0910601B091070126B5A89B05C02F3FEC
:1002400019F00196A11DB11D3FBFBA2FA92F982FFC
:100250008827820F911DA11DB11DBC01CD0142E077
:10026000660F771F881F991F4A95D1F708958F92BF
:100270009F92AF92BF92CF92DF92EF92FF926B016B
:100280007C010E9412014B015C01C114D104E10404
:10029000F10401F10E9475020E941201DC01CB0100
:1002A00088199909AA09BB09883E9340A105B1059F
:1002B00060F321E0C21AD108E108F10888EE880E47
:1002C00083E0981EA11CB11CC114D104E104F10407
:1002D00019F7DBCFFF90EF90DF90CF90BF90AF90FA
:1002E0009F908F900895CF93789484B5826084BD59
:1002F00084B5816084BD85B5826085BD85B581602A
:1003000085BD80916E00816080936E0010928100A7
:100310008091810082608093810080918100816062
:100320008093810080918000816080938000809123
:10033000B10084608093B1008091B00081608093AF
:10034000B00080917A00846080937A0080917A0076
:10035000826080937A0080917A00816080937A0035
:1003600080917A00806880937A001092C100C2E088
:1003700061E08C2F0E940902CF5FCE30C9F760E0A8
:100380008EE00E94090260E08FE00E94090260E0B6
:1003900080E10E94090260E081E10E94090260E0C0
:1003A00082E10E94090260E083E10E94090260E0AC
:1003B00084E10E94090260E085E1CF910C9409027A
:1003C000833081F028F4813099F08230A1F00895D3
:1003D0008730A9F08830B9F08430D1F48091800062
:1003E0008F7D03C0809180008F7780938000089577
:1003F00084B58F7702C084B58F7D84BD08958091C8
:10040000B0008F7703C08091B0008F7D8093B000E3
:100410000895CF93DF9390E0FC01E458FF4F2491BF
:10042000FC01E057FF4F8491882361F190E0880F31
:10043000991FFC01E854FF4FC591D491FC01E2558E
:10044000FF4FA591B491611109C09FB7F8948881BD
:10045000209582238883EC912E230BC0623061F4B7
:100460009FB7F8943881822F809583238883EC91FD
:100470002E2B2C939FBF06C08FB7F894E8812E2BAC
:1004800028838FBFDF91CF9108951F93CF93DF9380
:10049000282F30E0F901E859FF4F8491F901E45821
:1004A000FF4FD491F901E057FF4FC491CC23C9F01D
:1004B000162F81110E94E001EC2FF0E0EE0FFF1FDC
:1004C000E255FF4FA591B4918FB7F894111105C073
:1004D0009C91ED2FE095E92302C0EC91ED2BEC937C
:1004E0008FBFDF91CF911F91089508951F93CF93F0
:1004F000DF93182FEB0161E00E940902209711F4AD
:1005000060E004C0CF3FD10539F461E0812FDF9175
:10051000CF911F910C944502E12FF0E0E859FF4F75
:10052000E491E330F9F048F4E130B9F0E230A1F5BC
:1005300084B5806284BDC8BD34C0E730E9F0E830DE
:1005400019F1E43049F58091800080628093800049
:10055000D0938B00C0938A0024C084B5806884BD8A
:10056000C7BD1FC080918000806880938000D093B9
:100570008900C093880015C08091B0008068809386
:10058000B000C093B3000DC08091B0008062809332
:10059000B000C093B40005C0C038D1050CF0B5CF91
:0E05A000AFCFDF91CF911F910895F894FFCF58
:00000001FF
